:020000040800F2
:1000000010040020891400081D0100080D010008DB
:100010001101000815010008190100080000000086
:1000200000000000000000000000000021010008A6
:100030002501000800000000290100082D0100082A
:10004000D1140008D1140008D1140008D1140008FC
:10005000D1140008D1140008D1140008D1140008EC
:10006000D1140008D1140008D1140008D1140008DC
:10007000D1140008D1140008D1140008D1140008CC
:10008000D1140008D1140008D1140008D1140008BC
:10009000D1140008D1140008D1140008D1140008AC
:1000A000D1140008B9010008D1140008D1140008C7
:1000B000D1140008D1140008D1140008D11400088C
:1000C000D1140008D1140008D1140008D11400087C
:1000D000D1140008D1140008D1140008D11400086C
:1000E000D1140008D1140008D11400080000000049
:1000F0000000000000000000000000000000000000
:1001000000000000000000005FF808F1FEE700BFFB
:10011000FEE700BFFEE700BFFEE700BF704700BF7D
:10012000704700BF704700BF704700BF38B51D4D16
:100130001D4C2B68204601332B6000F049FB1B4B04
:1001400062781978207802F003027F2808BF41F016
:100150000101022A1970A37818D003F00303022BBF
:100160001AD00022124B19780A44D2B21A702B68A6
:100170009A0607D10F4A1178972903D9C3F382133E
:10018000683B13700B4800F0C1FA38BD13F003034D
:10019000E5D14FF0FF32E5E7D2F1010238BF00228E
:1001A000E0E700BF741600201404002018040020AB
:1001B000100400205015002010B51848012101F04E
:1001C00053F900B910BD164C1448012101F058F93B
:1001D0002046032100F030FA0028F3D0114B1A8892
:1001E000C2B9114B618AD3F8882CD3F88C0C013A30
:1001F000121AC2F309020AB904221A70D3F88C2C1D
:10020000501CC0F3090003EB4202C3F88C0CA2F8A7
:10021000881410BD013A1A8010BD00BF002C0140A7
:100220001C0400200000002030040020F8B50A4D16
:1002300007460E4600F086FF286800F0C3FF56B15F
:1002400028680024395900F0DFFF2B680434181D9A
:10025000A6422860F6D8F8BD4C15002070B598234A
:1002600082B08DF8003031BB144DA5FB00256D091F
:100270003035EDB212490024A1FB0063DB089AB2CD
:10028000A1FB0261C90801EB810103EB8303A2EB2F
:100290004102A0EB4303303230330A4869468DF8FF
:1002A00001508DF802208DF803308DF8044000F0E5
:1002B00071FA02B070BD5825DCE700BF1F85EB5115
:1002C000CDCCCCCC5015002010B50C4C40F2F31125
:1002D0002046002200F0A0FA094B00220121094823
:1002E0001A6000F041F9084800F058FA074800F099
:1002F000EBF92046BDE8104000F0D4BA48150020C4
:10030000741600201C040020140400205015002046
:100310002DE9F041174D184C28464FF47A7100F042
:1003200093FD0822204613464FF0005100F03CFB9D
:10033000D4F8883C114FC4F88C3CD4F810CD104E42
:10034000104A00234FF0100885F80C81C4F814CD32
:10035000A4F88434A3602370A36123612B70A5F8F3
:100360000E313B80166008480849BDE8F04100F0B6
:1003700011BA00BF5C150020300400207016002068
:10038000004000084C15002050150020B816000849
:100390002DE9F04F83B0FFF797FFFFF7B9FF6748EC
:1003A0004FF4005100F0BAFF00283BD1644C654F78
:1003B0002278DFF8B091042A634D614B48D0D3F81E
:1003C0008C2CD3F8883CD31AC3F309031F2B18D9FC
:1003D000D4F88C1CD4F8882C594B8A1AC2F3090221
:1003E000184672B11A7822B1012A06D000F0F2FB49
:1003F000EEE7184600F08CFBEAE7184600F0B6FB83
:10040000E6E74FF0000A0026D4F8142DD4F8103D8A
:10041000DFF82CE1D31A5B060AD0BAF1000F0AD13B
:100420004A48E6B100F058FA494800F08FFAFEE772
:10043000BAF1000F06D000232B702B78002BFCD0D4
:10044000FFF766FF002EEDD122783D4B042AB6D18E
:100450004048414900F09EF94FF0010AD3E7DEF829
:10046000103D0EEB0302013303F07F03CEF8103D85
:1004700092F8901C00F042FD831E032BC4D8DFE8E5
:1004800003F00C020239354A033852F82010314883
:1004900000F080F94FF0010AB6E7B7F80080DFF806
:1004A000ACB008F0030009EB00200BF101014FF4A0
:1004B000807201F00FF808F1010398B210F0030305
:1004C000388019D0264AD4F810ED002310200321DB
:1004D000C4F814EDC4F87824C4F874248BF8003000
:1004E000ABF80E31C4F87C34A4F884348BF80C01DA
:1004F000217089E7012687E7194680080193FFF7F5
:10050000ADFE18484FF48061FFF790FED4F8882CB8
:10051000019BC4F88C2CD4F8100D102102228BF80A
:100520000030ABF80E31A4F88434A360A3612361DA
:10053000C4F8140D8BF80C11227065E7001001400F
:100540003004002070160020180400205C150020E4
:100550000040000850150020C016000804000020CC
:1005600000FCFFFF48110020F0B587B005460126CA
:1005700003240F46102369462C488DF802408DF85D
:100580000330ADF8006000F06FFE6946A02218232A
:1005900027488DF80240ADF800208DF8033000F0B8
:1005A00063FE69464022042321488DF80240ADF8DD
:1005B00000208DF8033000F057FE002F4FF00004AC
:1005C0000CBF4FF0280E4FF0200E4FF4007207239F
:1005D00001A94FF482771748ADF810E0ADF80E206E
:1005E000ADF81430ADF80440ADF80840ADF80A405D
:1005F000ADF80C40ADF81240ADF8067000F0BCFE4E
:1006000031460A4800F090FE31460A4800F0D4FE18
:100610002C806C60AC602C736C73AC73EC732C74BA
:100620006C74AC74EC7407B0F0BD00BF000C0140FA
:10063000000801400030014038B5044680680D468E
:1006400001282FD013D302280DD11D4800F0C4FE7D
:1006500000F00F00030223801948002100F0BAFEC9
:100660000020A06038BD431E5842584138BD144890
:1006700000F0B2FE23886268184383B204EB4202A2
:10068000238010489381012100F04EFE0D48012186
:1006900000F04CFE0A48062100F09CFE0120656037
:1006A000A06038BD064800F097FE616804488901E3
:1006B00089B200F08FFE0223A360002038BD00BF86
:1006C00000300140000C014070B50F4E82B004466E
:1006D00040F6E25230460325102301A9ADF804206C
:1006E0008DF807308DF8065000F0BEFD00234FF462
:1006F0008062326120462581A380E380202104228C
:1007000000F05EFF02B070BD000C0140F0B4038940
:10071000C588AB4231D386881B4F1C4937F8163049
:1007200001364B6106F00306825D194B86804FF45B
:10073000806433F8122010234C6114494FF4006494
:100740004C6112F0010F4FF0020414BF0C614C61B8
:10075000013B0E494FF400649BB252080C61002B20
:10076000EBD137F816304FF480620A610B61013526
:1007700005F00305C580F0BC70478188024A034B31
:1007800032F811205A61F2E7D8180008000C014035
:10079000D8160008042200F05DBF00BF30B583B05A
:1007A0000446012248234FF46045084801A98DF80A
:1007B0000730ADF804508DF8062000F055FDFF23FA
:1007C0002370A370637003B030BD00BF0010014000
:1007D000F8B5104D044607784FF40051284600F054
:1007E0009DFD7F00FFB2384320704FF480412846C2
:1007F000667800F093FD7600F6B2A378304360701F
:100800004FF4004128465D0000F088FDEDB228431A
:10081000A070F8BD0010014030B5144685B00D46FB
:1008200000F0C8FB2CB14FF000604FF4804100F0A5
:100830007FFC45F61C20012100F086FD4FF480402E
:10084000012100F08DFD0120014600F071FD002422
:100850001348ADF80850ADF80440ADF80A40ADF8C3
:1008600006408DF80C4000F0F7FD01A90C4800F09F
:10087000B7FD01210A4800F0D7FD4FF4A06000F059
:1008800015FC1922012368468DF801408DF80240BD
:100890008DF800208DF8033000F012FC05B030BD5B
:1008A000002C014038B501210A46074800F0CAFD76
:1008B000064D074B0748F0245D60002180F8234077
:1008C000072299601A6038BD002C01403F190100D1
:1008D00010E000E000ED00E0164A174810B4174B96
:1008E0004FF0FF310424C2F88010C2F88410C2F81F
:1008F0008011C2F8841104601968114A41F00101A5
:10090000196014680F4910482140116019680024CB
:1009100021F0847121F480311960196821F480215B
:100920001960136823F4FE03136004605DF8044B40
:10093000704700BF00E100E010E000E0001002405E
:10094000A01002400000FFF84011024010B54468BA
:10095000006800F02BFBA04710BD00BF70B51C263F
:10096000044632460021383000F02AFE4FF400756C
:100970003246002104F1540000F022FE2A460021F4
:1009800004F1700000F01CFE2A4604F51C700021E2
:1009900000F016FEB4F880240023A4F8822423611A
:1009A000A361A4F8703470BD70B4104C064654F8BE
:1009B000220034460022855E02320E2AE56104F1EF
:1009C0000404F8D100224FF40020C6F88C2C70608B
:1009D000C6F8882CA6F88034C6F8142D716130460C
:1009E000C6F8102D70BCFFF7B9BF00BF2019000872
:1009F0002DE9F007B0F88094B0F8708409F1FF3762
:100A000008F5807C0024012F1FFA8CFC25460FDDA1
:100A10000123C3EB0C02D2B200EB42020133B2F964
:100A200070609BB2B2F97022BB4235441444F0DBD3
:100A3000002944D0C9EB0C0C1FFA8CFC0CF102020B
:100A400000EB4803D2B23832B3F97070B3F970A238
:100A500030F9126085EAE579A9EBE57984EAE47179
:100A6000A1EBE4712F44A244BF1B4944C6EB0A0624
:100A700086EAE679A9EBE6790CF1010208F1FF03B9
:100A800087EAE77CACEBE77C01EB8101CC44D2B296
:100A9000DBB2890800EB420200EB43038C45B2F85D
:100AA0007090B2F87082B3F87020B3F8703210D939
:100AB000B0F88234344601333D46A0F88234002D2C
:100AC000ACBF02200020002CA8BF0130BDE8F00719
:100AD00070470FFA89F90FFA88F8A944A04412B2B6
:100AE0001BB2C2EB0902C3EB080382EAE277A7EB71
:100AF000E27783EAE376A6EBE3763E448E42DED9E4
:100B0000B0F882141C464B1E1546A0F88234D6E776
:100B100010B416E0D0F8881C426800EB4103B3F82B
:100B20008844836824B201330131A4EB2224C1F349
:100B300009012244B3F5805FC0F8881C42608360DD
:100B40000BD2D0F88C2CD0F8883CD31AC3F309030D
:100B5000002BDFD15DF8044B704700230122836036
:100B6000C36002705DF8044B704700BF70B41CE0B6
:100B7000D0F8884C416800EB4403B3F888348268AD
:100B80001BB2A3EB212303FB03F6C568013201343A
:100B9000C4F309040B4405EB2615B2F5805FC0F8D9
:100BA000884C4360C56082600AD2D0F88C2CD0F8A3
:100BB000883CD31AC3F30903002BD9D170BC70470A
:100BC0000023B5F5F03F8360C360EED302230370CA
:100BD000F4E700BF2DE9F0410446D4F88C2CD4F89A
:100BE000883CD31AC3F30903002B00F0FB80D4F830
:100BF00014C02769D4F8881C67443D0E914805F15C
:100C0000400204EB4103B3F88834D2B230F91280C9
:100C1000626830F915601BB2A3EB2223C8F100080B
:100C200003FB08F806FB03F601311344C1F3090185
:100C300000224FEA282836126360C4F8881CC4F8E2
:100C40005480A66315461046234602E0D3F854802C
:100C50009E6BD96904321C2A08FB010006FB015572
:100C600003F10403F2D1234600229E6ED96C043AAC
:100C700012F1180FDE661965A3F10403F5D10028FF
:100C80002378ACBF4FF001084FF0FF38002DACBF08
:100C900001224FF0FF32022B1CBF08FB05F802FBBC
:100CA0001088A66908BFC5EB000806EB4606B4F835
:100CB000702406EB08018E100CEBE10C2D1204EBF6
:100CC0004201001207EBC6072761A661C4F814C0F1
:100CD000A1F87050A1F87002B4F882140132013901
:100CE000D2B289B2A4F87024A4F8821449B9B4F835
:100CF0008024032BA4F8822425D0052B13D0022BAB
:100D000003D0032B7FF469AF28E02046FFF770FE85
:100D100038B9B4F8843401339BB2202BA4F884345E
:100D200062D02378EDE720460121FFF761FED4F879
:100D3000143DE218013382F8900C03F07F02C4F8EE
:100D4000142D2378DDE7D4F8143D04215A1C02F059
:100D50007F02234483F8901CC4F8142DB4F8706407
:100D6000B4F8805406F58076B6B26F00002D67D0D7
:100D7000002213461146B21AD2B204EB42029D423F
:100D8000B2F970C094BF01204FF0FF300CFB00118E
:100D900003F10103B2F970229BB294BF4FF0FF3010
:100DA0000120BB4200FB02111A46E4DBD4F87C347C
:100DB0008B42B8BFC4F87C140029BCBF0023C4F820
:100DC0007C34D4F874348B4207DDD4F87824934211
:100DD00003DDD4F87C24934217D0C4F87834C4F8E7
:100DE0007414FAE6BDE8F081D4F8101DA3F584630D
:100DF0000322C4F87C04A4F88404C4F8141DC4F8C5
:100E00007834C4F874342270A8E7A6EB5502D2B245
:100E100004EB4202B2F970000028DEDAB2F9702267
:100E2000002ADADDB4F88424013D013292B2042AAA
:100E3000A4F8842404BF05222270A4F88254CCE7CD
:100E40003946B3E70C00002000231022A0F810114F
:100E500080F80C210370A0F80E31A0F80A31704719
:100E600090F80C310B41DB0706D504290AD8DFE8DE
:100E700001F0283C0632140003230370704702235C
:100E800080F80C3190F80D3133B90122A0F8063109
:100E90004370A0F8083102707047B0F80E31B0F816
:100EA000102101339BB29A42A0F80E3102D8B0F85B
:100EB0000A3103BB1622102380F80C2180F80D3173
:100EC000704790F80D310822013BDBB280F80D31FC
:100ED00080F80C21D8E790F80D310122013BDBB2FC
:100EE00080F80D3180F80C21CEE70C2380F80C310E
:100EF00090F80D31C8E7052303707047037870B58B
:100F00000A4604469BB1012B0FD1B0F80651B0F848
:100F1000080161194E78013080B2324304284A70CA
:100F2000A4F8080108D092004A70184670BDFFF777
:100F300097FF2378184670BD0135ADB20022B5F594
:100F4000827FA4F80651A4F8082102D02C446270D4
:100F5000EBE7154D621C04F201104FF0FF3312F85D
:100F6000011B5940C9B255F82110824281EA13236E
:100F7000F5D194F8021194F8010194F804210904C0
:100F800041EA006194F803011143B4F80A21DB43FC
:100F900041EA0021994214BF042302230132237045
:100FA000A4F80A21C1E700BF8419000880F308886B
:100FB000704700BF3A4B10B419683A4A41F001013A
:100FC00019605C6883B022405A601A68002122F0E0
:100FD000847222F480321A601A684FF41F0022F4DF
:100FE00080221A605A6822F4FE025A6098600091CA
:100FF00001911A6842F480321A6003E0009BB3F555
:10100000A06F0AD0264B1B6803F400330193009BAA
:1010100001330093019B002BF0D0214B1B6813F48C
:10102000003318BF01230193019B012B00D0FEE781
:101030001D4A1B4B116841F010011160116821F02D
:1010400003011160116841F0020111605A685A6091
:101050005A685A605A6842F480625A605A6822F4A8
:101060007C125A605A6842F4E8125A601A6842F0D8
:1010700080721A600A4B1A689201FBD55A6822F0F6
:1010800003025A605A6842F002025A60044B5B68DD
:1010900003F00C03082BF9D103B05DF8044B704743
:1010A000001002400000FFF80020024040F0BF6046
:1010B000024B40F40030D860704700BF00ED00E004
:1010C000C37830B45BB90378012103F01F0291406B
:1010D00030BC5B09144A203342F823107047134B8D
:1010E0004478DB680F22DB43C3F30223C3F104011E
:1010F00022FA03F38C408578017803EA0502224343
:1011000001F160431201D2B203F5614383F8002379
:101110000378012103F01F02914030BC024A5B09B1
:1011200042F82310704700BF00E100E000ED00E04E
:1011300021F0604121F07F01014B08439860704726
:1011400000ED00E0024B0349034A59605A607047C2
:101150000020024023016745AB89EFCD084BDA68D8
:10116000D1070BD4DA68520701D502207047DB683B
:1011700013F0100F0CBF04200320704701207047AC
:101180000020024010B582B00446FFF7E7FF0128B7
:1011900012D1A4B1FF23002201920193019B2BB134
:1011A000019B013B0193019B002BF9D1FFF7D6FF77
:1011B000012804F1FF34ECD00CB102B010BD0520C1
:1011C00002B010BD38B5054640F6FF70FFF7DAFFF4
:1011D000042800D038BD0B4C40F6FF70236943F063
:1011E000020323616561236943F040032361FFF734
:1011F000C9FF0528EED0226941F6FD731340236133
:1012000038BD00BF0020024070B5002382B0054603
:101210000F200C460193FFF7B5FF042801D002B060
:1012200070BD104EA3B232690F2042F0010232614C
:101230002B80FFF7A7FF042808D00528EFD03269DC
:1012400041F6FE731340336102B070BD0235019563
:10125000019B240C1C800F20FFF794FF0528EED182
:10126000DDE700BF00200240F0B4CD78EB0648BFB8
:101270008B78098805F00F0648BF1E4311F0FF0F59
:1012800020D00768002302E00133082B19D0012287
:101290009A4002EA01049442F6D19A004FF00F0CF2
:1012A0000CFA02FC06FA02F227EA0C07282D47EA9C
:1012B000020731D0482D03F1010308BF0461082B58
:1012C000E5D10760FF2923D94768002302E00133F5
:1012D000082B1CD0012403F1080204FA02F202EAEE
:1012E00001049442F3D19A004FF00F0C0CFA02FC67
:1012F00006FA02F227EA0C07282D47EA020709D06E
:10130000482D03F1010308BF0461082BE2D14760B7
:10131000F0BC70474461DAE74461B5E7836819427D
:101320000CBF002001207047016170474161704788
:10133000044B5A6919B922EA0000586170471043FA
:101340005861704700100240044B9A6919B922EAAB
:101350000000986170471043986170470010024088
:10136000044BDA6919B922EA0000D86170471043CA
:10137000D861704700100240F0B40B884C888A880E
:101380001C43CB8814430A891C434B898F89224311
:101390000588CE891A433A43324305F44153134337
:1013A0009BB20380838B0A8A23F400631B041B0C0B
:1013B0008383F0BC02827047038829B923F040037D
:1013C0001B041B0C038070479BB243F04003038057
:1013D000704700BF81817047808980B2704700BF2D
:1013E000038830B403F08F0303800588CA884B88D4
:1013F000ADB215431D430B4B8C880A88ADB29842A1
:1014000005808485028507D003F50063984203D0E8
:1014100030BC0123838270470B7A30BC03860123E2
:1014200083827047002C0140038829B923F001030F
:101430009B059B0D038070479BB243F00103038023
:10144000704700BF83899BB21AB923EA01018181E9
:101450007047194381817047038923F007031B04F8
:101460001B0C0381704700BF038A828911EA0300C5
:1014700092B203D011420CBF00200120704700BF80
:10148000C94389B201827047002100F004B80B4BB8
:101490005B58435004310A480A4B42189A42FFF401
:1014A000F6AF094A00F003B8002342F8043B074BAB
:1014B0009A42FFF4F9AFFEF76BFF70479C1D0008DE
:1014C00000000020100200201004002078160020E8
:1014D000FFF7FEBF844641EA000313F0030349D13E
:1014E000403A23D30B6803604B6843608B6883608A
:1014F000CB68C3600B6903614B6943618B6983618E
:10150000CB69C3610B6A03624B6A43628B6A836275
:10151000CB6AC3620B6B03634B6B43638B6B83635D
:10152000CB6BC36340304031403ADBD230320BD317
:101530000B6803604B6843608B688360CB68C36053
:1015400010301031103AF3D20C3205D351F8043B6D
:1015500040F8043B043AF9D2043208D0D2071CBF49
:1015600011F8013B00F8013B01D30B880380604672
:10157000704700BF082A13D38B07B1D010F00303C4
:10158000AED0C3F10403D21ADB071CBF11F8013B34
:1015900000F8013BA4D331F8023B20F8023B9FE75F
:1015A000043AD9D3013A11F8013B00F8013BF9D2D2
:1015B0000B7803704B7843708B788370604670476C
:1015C000F0B4840743D0541E002A3ED0CDB2034667
:1015D00003E0621E002C38D0144603F8015B9A0722
:1015E000F7D1032C2AD9CDB245EA05250F2C45EABF
:1015F000054515D9A4F110073F0903F1100606EBC4
:1016000007161A46156055609560D5601032B242D3
:10161000F8D104F00F040137032C03EB07130DD9A5
:101620001E462246043A032A46F8045BFAD8221FD3
:1016300022F003020432134404F003042CB1C9B2B3
:101640001C4403F8011BA342FBD1F0BC70471446B5
:101650000346C6E740EA01039B0770B42AD1032A78
:1016600028D90C460346214654F8045BA5F10136FF
:1016700026EA050616F0803F05D1043A032A43F80E
:10168000045B2146EFD89AB10C78013A1C70013303
:101690003CB16AB111F8014F013A03F8014B002C3B
:1016A000F7D12AB11A44002103F8011B9342FBD160
:1016B00070BC70470346E6E79852445900000000AA
:1016C000404F5646000000004053594E00000000B5
:1016D00040435243000000000000000000000000F2
:1016E00000000000000000000000000000000000FA
:1016F00000000000000000000000000000000000EA
:1017000000000000000000000000000000000000D9
:1017100000000000000000000000100100055471EE
:1017200054B58824249B0001009C00F0B8035401A8
:10173000080044001000880088FC806044D840F015
:10174000446444B444BC908044FC44F41001080157
:10175000A00044100802908450FC44EC50F1009C1E
:1017600010F1449C448C40BC446C10910078A40C53
:10177000001C806E206E00FC44CC20FC64CC44B481
:101780001081007C880C286CA80290028890009C34
:10179000200200F028000010000244F8241C441825
:1017A0004870049C048C40F2442C54104030B0012A
:1017B0001001542850204438848C64C4500040B236
:1017C000041C003808082828A80240720C100C924B
:1017D0001001E09044000000A060080E80822810F4
:1017E000E0000C0280033800886088481800280058
:1017F00000EC14081011402E08FC04FC00FE00FD53
:1018000080FC40FC20FC10FC00C000E000700038B0
:101810000018001C008C00C4FCFF00000000000049
:1018200000000000000000000000000000000000B8
:1018300000000000000000000000000000000000A8
:101840000000000000000000000000000000000098
:101850000000000000000000000000000000000088
:101860000000000000000000000000000000000078
:101870000000000000000000000000000000000068
:101880000000000000000000000000000000000058
:101890000000000000000000000000000000000048
:1018A0000000000000000000000000000000000038
:1018B0000000000000000000000000000000000028
:1018C0000000000000000000000000000000000018
:1018D000000000000000FCFF20004000800000012C
:1018E000ECFF2800C9FF4000FF004000C9FF2800AE
:1018F000EBFFCDFF7B00FF007B00CDFFEBFF000087
:10190000BAFF1900B400FF00B4001900BAFF0000CC
:10191000DDFF5500CD00FF00CD005500DDFF0000CC
:10192000000000000000000000000000E0180008B7
:10193000F018000800000000001900080000000076
:101940001019000800000000000000000000000066
:101950006419000800000000000000000000000002
:10196000741900082D009500E300FF00E3009500C6
:101970002D00000000006200B400EC00FF00EC004D
:10198000B400620000000000963007772C610EEE74
:10199000BA51099919C46D078FF46A7035A563E9C6
:1019A000A395649E3288DB0EA4B8DC791EE9D5E0ED
:1019B00088D9D2972B4CB609BD7CB17E072DB8E7EC
:1019C000911DBF906410B71DF220B06A4871B9F341
:1019D000DE41BE847DD4DA1AEBE4DD6D51B5D4F47A
:1019E000C785D38356986C13C0A86B647AF962FDDF
:1019F000ECC9658A4F5C0114D96C0663633D0FFA2C
:101A0000F50D088DC8206E3B5E10694CE44160D531
:101A1000727167A2D1E4033C47D4044BFD850DD21B
:101A20006BB50AA5FAA8B5356C98B242D6C9BBDB2E
:101A300040F9BCACE36CD832755CDF45CF0DD6DC29
:101A4000593DD1ABAC30D9263A00DE518051D7C8D0
:101A50001661D0BFB5F4B42123C4B3569995BACF5B
:101A60000FA5BDB89EB802280888055FB2D90CC67C
:101A700024E90BB1877C6F2F114C6858AB1D61C1F5
:101A80003D2D66B69041DC760671DB01BC20D29814
:101A90002A10D5EF8985B1711FB5B606A5E4BF9FA1
:101AA00033D4B8E8A2C9077834F9000F8EA8099694
:101AB00018980EE1BB0D6A7F2D3D6D08976C6491FF
:101AC000015C63E6F4516B6B62616C1CD830658518
:101AD0004E0062F2ED95066C7BA5011BC1F40882F5
:101AE00057C40FF5C6D9B06550E9B712EAB8BE8B36
:101AF0007C88B9FCDF1DDD62492DDA15F37CD38CBF
:101B0000654CD4FB5861B24DCE51B53A7400BCA3BC
:101B1000E230BBD441A5DF4AD795D83D6DC4D1A4EE
:101B2000FBF4D6D36AE96943FCD96E34468867ADC5
:101B3000D0B860DA732D0444E51D03335F4C0AAA64
:101B4000C97C0DDD3C710550AA41022710100BBE67
:101B500086200CC925B56857B3856F2009D466B9AE
:101B60009FE461CE0EF9DE5E98C9D9292298D0B0E3
:101B7000B4A8D7C7173DB359810DB42E3B5CBDB790
:101B8000AD6CBAC02083B8EDB6B3BF9A0CE2B60311
:101B90009AD2B1743947D5EAAF77D29D1526DB04C6
:101BA0008316DC73120B63E3843B64943E6A6D0D11
:101BB000A85A6A7A0BCF0EE49DFF099327AE000A5C
:101BC000B19E077D44930FF0D2A3088768F2011EEF
:101BD000FEC206695D5762F7CB67658071366C1986
:101BE000E7066B6E761BD4FEE02BD3895A7ADA10A7
:101BF000CC4ADD676FDFB9F9F9EFBE8E43BEB71788
:101C0000D58EB060E8A3D6D67E93D1A1C4C2D83811
:101C100052F2DF4FF167BBD16757BCA6DD06B53F77
:101C20004B36B248DA2B0DD84C1B0AAFF64A0336B6
:101C3000607A0441C3EF60DF55DF67A8EF8E6E3135
:101C400079BE69468CB361CB1A8366BCA0D26F257E
:101C500036E2685295770CCC03470BBBB9160222CB
:101C60002F260555BE3BBAC5280BBDB2925AB42BE0
:101C7000046AB35CA7FFD7C231CFD0B58B9ED92CF5
:101C80001DAEDE5BB0C2649B26F263EC9CA36A755A
:101C90000A936D02A906099C3F360EEB8567077211
:101CA00013570005824ABF95147AB8E2AE2BB17B78
:101CB000381BB60C9B8ED2920DBED5E5B7EFDC7CFF
:101CC00021DFDB0BD4D2D38642E2D4F1F8B3DD6856
:101CD0006E83DA1FCD16BE815B26B9F6E177B06F51
:101CE0007747B718E65A0888706A0FFFCA3B06663E
:101CF0005C0B0111FF9E658F69AE62F8D3FF6B61CB
:101D000045CF6C1678E20AA0EED20DD75483044E6C
:101D1000C2B30339612667A7F71660D04D476949FA
:101D2000DB776E3E4A6AD1AEDC5AD6D9660BDF400D
:101D3000F03BD83753AEBCA9C59EBBDE7FCFB247C0
:101D4000E9FFB5301CF2BDBD8AC2BACA3093B353A5
:101D5000A6A3B4240536D0BA9306D7CD2957DE54AE
:101D6000BF67D9232E7A66B3B84A61C4021B685D87
:101D7000942B6F2A37BE0BB4A18E0CC31BDF055A00
:101D80008DEF022DF8B500BFF8BC08BC9E46704729
:0C1D9000F8B500BFF8BC08BC9E467047C8
:101D9C00401F0000C8160008D016000800003200D2
:101DAC0064009600C800FA002C015E018F01C0018E
:101DBC00F101220252028202B102E1020F033D0341
:101DCC006B039803C503F1031C04470471049B04C3
:101DDC00C304EB04130539055F058405A805CB0581
:101DEC00ED050E062F064E066C068A06A606C206E2
:101DFC00DC06F5060E0725073B0750076407760738
:101E0C0088079807A707B507C207CE07D807E107C9
:101E1C00E907F007F607FA07FD07FF070008FF07B9
:101E2C00FD07FA07F607F007E907E107D807CE0721
:101E3C00C207B507A70798078807760764075007F6
:101E4C003B0725070E07F506DC06C206A6068A0622
:101E5C006C064E062F060E06ED05CB05A80584056F
:101E6C005F0539051305EB04C3049B047104470497
:101E7C001C04F103C50398036B033D030F03E1023C
:101E8C00B102820252022202F101C0018F015E01F5
:101E9C002C01FA00C8009600640032000000CEFF4E
:101EAC009CFF6AFF38FF06FFD4FEA2FE71FE40FEC7
:101EBC000FFEDEFDAEFD7EFD4FFD1FFDF1FCC3FCF4
:101ECC0095FC68FC3BFC0FFCE4FBB9FB8FFB65FB52
:101EDC003DFB15FBEDFAC7FAA1FA7CFA58FA35FA74
:101EEC0013FAF2F9D1F9B2F994F976F95AF93EF9F3
:101EFC0024F90BF9F2F8DBF8C5F8B0F89CF88AF87D
:101F0C0078F868F859F84BF83EF832F828F81FF8CA
:101F1C0017F810F80AF806F803F801F800F801F8B9
:101F2C0003F806F80AF810F817F81FF828F832F832
:101F3C003EF84BF859F868F878F88AF89CF8B0F83D
:101F4C00C5F8DBF8F2F80BF924F93EF95AF976F9F1
:101F5C0094F9B2F9D1F9F2F913FA35FA58FA7CFA84
:101F6C00A1FAC7FAEDFA15FB3DFB65FB8FFBB9FB3C
:101F7C00E4FB0FFC3BFC68FC95FCC3FCF1FC1FFD77
:101F8C004FFD7EFDAEFDDEFD0FFE40FE71FEA2FE9E
:101F9C00D4FE06FF38FF6AFF9CFFCEFF0000000056
:0400000508000000EF
:00000001FF
